{
  "contractName": "ConsentRegistry",
  "abi": [
    {
      "anonymous": false,
      "inputs": [
        {
          "indexed": true,
          "internalType": "address",
          "name": "_signer",
          "type": "address"
        },
        {
          "indexed": false,
          "internalType": "string",
          "name": "_studentHash",
          "type": "string"
        }
      ],
      "name": "Notarized",
      "type": "event"
    },
    {
      "constant": false,
      "inputs": [
        {
          "internalType": "string",
          "name": "_studentHash",
          "type": "string"
        },
        {
          "internalType": "bool",
          "name": "_consent",
          "type": "bool"
        }
      ],
      "name": "setConsent",
      "outputs": [
        {
          "internalType": "bool",
          "name": "",
          "type": "bool"
        }
      ],
      "payable": false,
      "stateMutability": "nonpayable",
      "type": "function"
    },
    {
      "constant": true,
      "inputs": [
        {
          "internalType": "string",
          "name": "_studentHash",
          "type": "string"
        }
      ],
      "name": "getConsent",
      "outputs": [
        {
          "internalType": "bool",
          "name": "",
          "type": "bool"
        }
      ],
      "payable": false,
      "stateMutability": "view",
      "type": "function"
    }
  ],
  "bytecode": "0x608060405234801561001057600080fd5b5061041a806100206000396000f3fe608060405234801561001057600080fd5b50600436106100365760003560e01c806366a71d351461003b578063b4efa3cf146100cc575b600080fd5b6100b26004803603602081101561005157600080fd5b810190808035906020019064010000000081111561006e57600080fd5b82018360208201111561008057600080fd5b803590602001918460018302840111640100000000831117156100a257600080fd5b9091929391929390505050610169565b604051808215151515815260200191505060405180910390f35b61014f600480360360408110156100e257600080fd5b81019080803590602001906401000000008111156100ff57600080fd5b82018360208201111561011157600080fd5b8035906020019184600183028401116401000000008311171561013357600080fd5b90919293919293908035151590602001909291905050506101c5565b604051808215151515815260200191505060405180910390f35b6000806000848460405160200180838380828437808301925050509250505060405160208183030381529060405280519060200120815260200190815260200160002060030160009054906101000a900460ff16905092915050565b60008084846040516020018083838082843780830192505050925050506040516020818303038152906040528051906020012090503360008083815260200190815260200160002060000160006101000a81548173ffffffffffffffffffffffffffffffffffffffff021916908373ffffffffffffffffffffffffffffffffffffffff16021790555042600080838152602001908152602001600020600101819055508484600080848152602001908152602001600020600201919061028c929190610340565b508260008083815260200190815260200160002060030160006101000a81548160ff0219169083151502179055503373ffffffffffffffffffffffffffffffffffffffff167f4208034e4449bb439a4b1ba16ff193bec2c83ec39cd969a629aa475c7f0b8047868660405180806020018281038252848482818152602001925080828437600081840152601f19601f820116905080830192505050935050505060405180910390a260019150509392505050565b828054600181600116156101000203166002900490600052602060002090601f016020900481019282601f1061038157803560ff19168380011785556103af565b828001600101855582156103af579182015b828111156103ae578235825591602001919060010190610393565b5b5090506103bc91906103c0565b5090565b6103e291905b808211156103de5760008160009055506001016103c6565b5090565b9056fea265627a7a72315820b3a3e36bb28b9d29802a33befc57440711049e8aed6cb170be5a1bd0427af5a464736f6c63430005100032",
  "source": "pragma solidity ^0.5.16;\r\n\r\n\r\n/**\r\n*  @dev Smart Contract resposible to notarize consents on the Ethereum Blockchain\r\n*/\r\ncontract ConsentRegistry {\r\n\r\n    struct ConsentGiven{\r\n        address signer; // Notary\r\n        uint date; // Date of notarization\r\n        string hash; // Student Hash\r\n        bool consent; // Parental consent\r\n    }\r\n\r\n    /**\r\n     *  @dev Storage space used to record all consents notarized with metadata\r\n     */\r\n    mapping(bytes32 => ConsentGiven ) registry;\r\n\r\n    /**\r\n     *  @dev Notarize a consent identified by the hash of the consent hash, the sender and date in the registry\r\n     *  @dev Emit an event Notarized in case of success\r\n     *  @param _studentHash Consent hash\r\n     */\r\n    function setConsent(string calldata _studentHash, bool _consent) external returns (bool) {\r\n        bytes32 id = keccak256(abi.encodePacked(_studentHash));\r\n\r\n        registry[id].signer = msg.sender;\r\n        registry[id].date = now;\r\n        registry[id].hash = _studentHash;\r\n        registry[id].consent = _consent;\r\n\r\n        emit Notarized(msg.sender, _studentHash);\r\n\r\n        return true;\r\n    }\r\n\r\n    /**\r\n     *  @dev Verify a consent identified by its has was noterized in the registry previsouly.\r\n     *  @param _studentHash Consent hash\r\n     *  @return bool if consent was noterized previsouly in the registry\r\n     */\r\n    function getConsent(string calldata _studentHash) external view returns (bool) {\r\n        return registry[keccak256(abi.encodePacked(_studentHash))].consent;\r\n    }\r\n\r\n    /**\r\n     *  @dev Definition of the event triggered when a consent is successfully notarized in the registry\r\n     */\r\n    event Notarized(address indexed _signer, string _studentHash);\r\n}\r\n\r\n",
  "sourcePath": "C:\\Workspace\\repositories\\springboot-camel\\src\\main\\resources\\contracts\\contracts\\ConsentRegistry.sol",
  "compiler": {
    "name": "solc",
    "version": "0.5.16+commit.9c3226ce.Emscripten.clang"
  },
  "schemaVersion": "3.2.0",
  "updatedAt": "2020-07-02T13:36:40.818Z",
  "devdoc": {
    "details": "Smart Contract resposible to notarize consents on the Ethereum Blockchain",
    "methods": {
      "getConsent(string)": {
        "details": "Verify a consent identified by its has was noterized in the registry previsouly.",
        "params": {
          "_studentHash": "Consent hash"
        },
        "return": "bool if consent was noterized previsouly in the registry"
      },
      "setConsent(string,bool)": {
        "details": "Notarize a consent identified by the hash of the consent hash, the sender and date in the registryEmit an event Notarized in case of success",
        "params": {
          "_studentHash": "Consent hash"
        }
      }
    }
  },
  "userdoc": {
    "methods": {}
  }
}